:100000000C942A000C946B030C9494030C94BD0381
:100010000C9447000C9447000C9447000C94470044
:100020000C9447000C9447000C9447000C94470034
:100030000C9447000C9447000C9447000C94470024
:100040000C9447000C9447000C9447000C94470014
:100050000C94470011241FBECFE5D8E0DEBFCDBF12
:1000600010E0A0E6B0E0ECE6F8E002C005900D92EA
:10007000AC38B107D9F720E0ACE8B0E001C01D9280
:10008000A239B207E1F70E94A7010C9434040C9442
:100090000000CF93C82F60E083E00E94D6026C2F4F
:1000A000661F6627661F8BE00E94D602C6FB662786
:1000B00060F98AE00E94D602C5FB662760F989E0F4
:1000C0000E94D602C4FB662760F988E00E94D6022F
:1000D00061E082E00E94D6028FE99FE00197F1F78C
:1000E00000C0000060E082E00E94D6028FE99FE03D
:1000F0000197F1F700C00000C3FB662760F98BE0B1
:100100000E94D602C2FB662760F98AE00E94D602EE
:10011000C1FB662760F989E00E94D6026C2F6170EE
:1001200088E00E94D60261E082E00E94D6028FE958
:100130009FE00197F1F700C0000060E082E00E94BC
:10014000D6028FE99FE00197F1F700C00000CF9140
:100150000895CF93C82F61E083E00E94D6026C2FF0
:10016000661F6627661F8BE00E94D602C6FB6627C5
:1001700060F98AE00E94D602C5FB662760F989E033
:100180000E94D602C4FB662760F988E00E94D6026E
:1001900061E082E00E94D6028FE99FE00197F1F7CB
:1001A00000C0000060E082E00E94D6028FE99FE07C
:1001B0000197F1F700C00000C3FB662760F98BE0F0
:1001C0000E94D602C2FB662760F98AE00E94D6022E
:1001D000C1FB662760F989E00E94D6026C2F61702E
:1001E00088E00E94D60261E082E00E94D6028FE998
:1001F0009FE00197F1F700C0000060E082E00E94FC
:10020000D6028FE99FE00197F1F700C00000CF917F
:1002100008952FEF80E792E0215080409040E1F771
:1002200000C0000082E00E94490088E20E9449006C
:100230008CE00E94490081E00E9449008FE99FE024
:100240000197F1F700C0000086E00E944900089580
:100250000E94A90008950F931F93CF93DF938C0101
:10026000C0E0D0E003C00E9428012196F801EC0F05
:10027000FD1F80818111F7CFDF91CF911F910F91E9
:100280000895EF92FF920F931F93CF93DF93CDB713
:10029000DEB760970FB6F894DEBF0FBECDBF7C010E
:1002A000009721F480E30E94280136C0992334F49A
:1002B0008DE20E942801F194E194F10800E010E041
:1002C00011C0C7016AE070E00E940C04E1E0F0E0B8
:1002D000EC0FFD1FE00FF11F805D8083E62EF72EEF
:1002E0000F5F1F4F1E141F0464F3E1E0F0E0EC0FFA
:1002F000FD1FE00FF11F1082015011090BC0E1E05A
:10030000F0E0EC0FFD1FE00FF11F80810E9428013B
:100310000150110911239CF760960FB6F894DEBFC7
:100320000FBECDBFDF91CF911F910F91FF90EF9046
:100330000895811105C080E8860F0E944900089544
:10034000813021F480EC860F0E9449000895CF93FC
:10035000DF931F92CDB7DEB70E945B030E940901B5
:1003600080E890E00E942B0160E08CE00E94D602C1
:100370000E94E60360E081E10E94D602BE016F5F49
:100380007F4F83E00E94020460E081E00E949901B7
:10039000898190E00E9441018981853029F461E0E2
:1003A00081E10E94D602EACF60E081E10E94D6029C
:1003B000E5CF982F9695969596958770613009F4BC
:1003C000A5C008F453C0623009F0EFC09130C1F00D
:1003D00028F0923039F19330B9F108954AB321E011
:1003E00030E0B90102C0660F771F8A95E2F7CB01B2
:1003F000942F982B9ABB9BB3809589238BBB089530
:1004000047B321E030E0B90102C0660F771F8A953B
:10041000E2F7CB01942F982B97BB98B38095892353
:1004200088BB089544B321E030E0B90102C0660FF3
:10043000771F8A95E2F7CB01942F982B94BB95B345
:100440008095892385BB089541B321E030E0B9014F
:1004500002C0660F771F8A95E2F7CB01942F982B85
:1004600091BB92B38095892382BB08959130C1F0EE
:1004700028F0923039F19330B9F108954AB321E070
:1004800030E0B90102C0660F771F8A95E2F7CB0111
:100490008095942F98239ABB9BB389238BBB089597
:1004A00047B321E030E0B90102C0660F771F8A959B
:1004B000E2F7CB018095942F982397BB98B38923BB
:1004C00088BB089544B321E030E0B90102C0660F53
:1004D000771F8A95E2F7CB018095942F982394BBE0
:1004E00095B3892385BB089541B321E030E0B9017C
:1004F00002C0660F771F8A95E2F7CB018095942F93
:10050000982391BB92B3892382BB08959130C1F0A7
:1005100028F0923039F19330B9F108954AB321E0CF
:1005200030E0B90102C0660F771F8A95E2F7CB0170
:10053000962F909594239ABB9BB3892B8BBB0895E0
:1005400047B321E030E0B90102C0660F771F8A95FA
:10055000E2F7CB01962F9095942397BB98B3892B04
:1005600088BB089544B321E030E0B90102C0660FB2
:10057000771F8A95E2F7CB01962F9095942394BB31
:1005800095B3892B85BB089541B321E030E0B901D3
:1005900002C0660F771F8A95E2F7CB01962F9095E0
:1005A000942391BB92B3892B82BB0895982F969583
:1005B000969596958770611140C09130A1F028F012
:1005C0009230F9F0933059F108954BB321E030E0C7
:1005D000B90102C0660F771F8A95E2F7CB018095BB
:1005E00084238BBB089548B321E030E0B90102C0F9
:1005F000660F771F8A95E2F7CB018095842388BB2D
:10060000089545B321E030E0B90102C0660F771FBD
:100610008A95E2F7CB018095842385BB089542B388
:1006200021E030E0B90102C0660F771F8A95E2F73A
:10063000CB018095842382BB08956130D9F5913038
:1006400099F028F09230E9F0933041F108954BB3DE
:1006500021E030E0B90102C0660F771F8A95E2F70A
:10066000CB01842B8BBB089548B321E030E0B90166
:1006700002C0660F771F8A95E2F7CB01842B88BBF7
:10068000089545B321E030E0B90102C0660F771F3D
:100690008A95E2F7CB01842B85BB089542B321E014
:1006A00030E0B90102C0660F771F8A95E2F7CB01EF
:1006B000842B82BB0895CF93C0E009C0EC2FF0E0FB
:1006C000E05AFF4F60818C2F0E94D901CF5FC0326A
:1006D000A8F3CF9108951F920F920FB60F92112495
:1006E0002F933F934F935F936F937F938F939F933A
:1006F000AF93BF93EF93FF93E0919000F09191003F
:10070000309709F00995FF91EF91BF91AF919F91BB
:100710008F917F916F915F914F913F912F910F90AA
:100720000FBE0F901F9018951F920F920FB60F9249
:1007300011242F933F934F935F936F937F938F93E6
:100740009F93AF93BF93EF93FF93E0918E00F0914F
:100750008F00309709F00995FF91EF91BF91AF910C
:100760009F918F917F916F915F914F913F912F91C9
:100770000F900FBE0F901F9018951F920F920FB6FB
:100780000F9211242F933F934F935F936F937F9317
:100790008F939F93AF93BF93EF93FF93E0918C0060
:1007A000F0918D00309709F00995FF91EF91BF917D
:1007B000AF919F918F917F916F915F914F913F91F9
:1007C0002F910F900FBE0F901F9018958DB18F77BE
:1007D0008DB98DB180628DB98DB180618DB98DB1CA
:1007E000877F8DB98DB18B7F8DB98DB18E7F8DB99E
:1007F0008DB182608DB98EB18E7F8EB98DB18064DE
:100800008DB908956115710531F08FB9779BFECFD1
:100810008FB1FB018083089597FB072E16F4009497
:1008200007D077FD09D00E94200407FC05D03EF4D4
:10083000909581959F4F0895709561957F4F08958C
:10084000AA1BBB1B51E107C0AA1FBB1FA617B707F6
:1008500010F0A61BB70B881F991F5A95A9F7809512
:0C0860009095BC01CD010895F894FFCFE5
:10086C000000020202020202020202020202000262
:10087C000202020202020202010101010101010154
:0C088C005350495F4D4153544552000049
:00000001FF
